{"abi":[{"type":"function","name":"computeAddress","inputs":[{"name":"salt","type":"bytes32","internalType":"bytes32"},{"name":"bytecode","type":"bytes","internalType":"bytes"}],"outputs":[{"name":"","type":"address","internalType":"address"}],"stateMutability":"view"},{"type":"function","name":"deploy","inputs":[{"name":"bytecode","type":"bytes","internalType":"bytes"},{"name":"salt","type":"bytes32","internalType":"bytes32"}],"outputs":[{"name":"","type":"address","internalType":"address"}],"stateMutability":"payable"},{"type":"event","name":"Deployed","inputs":[{"name":"addr","type":"address","indexed":false,"internalType":"address"}],"anonymous":false}],"bytecode":{"object":"0x608060405234801561001057600080fd5b50610295806100206000396000f3fe6080604052600436106100295760003560e01c80634af63f021461002e578063ca9ffe941461005d575b600080fd5b61004161003c3660046101d3565b6100d4565b6040516001600160a01b03909116815260200160405180910390f35b34801561006957600080fd5b50610041610078366004610218565b8051602091820120604080516001600160f81b0319818501523060601b6bffffffffffffffffffffffff191660218201526035810194909452605580850192909252805180850390920182526075909301909252815191012090565b6000808284516020860134f59050803b6100ed57600080fd5b6040516001600160a01b03821681527ff40fcec21964ffb566044d083b4073f29f7f7929110ea19e1b3ebe375d89055e9060200160405180910390a19392505050565b634e487b7160e01b600052604160045260246000fd5b600082601f83011261015757600080fd5b813567ffffffffffffffff8082111561017257610172610130565b604051601f8301601f19908116603f0116810190828211818310171561019a5761019a610130565b816040528381528660208588010111156101b357600080fd5b836020870160208301376000602085830101528094505050505092915050565b600080604083850312156101e657600080fd5b823567ffffffffffffffff8111156101fd57600080fd5b61020985828601610146565b95602094909401359450505050565b6000806040838503121561022b57600080fd5b82359150602083013567ffffffffffffffff81111561024957600080fd5b61025585828601610146565b915050925092905056fea26469706673582212201212aa7397517f9a29cce6d3609138863563970e3dff7613344aa18392b8916c64736f6c63430008170033","linkReferences":{}},"methodIdentifiers":{"computeAddress(bytes32,bytes)":"ca9ffe94","deploy(bytes,bytes32)":"4af63f02"},"id":37}