{"abi":[{"type":"constructor","inputs":[{"name":"_ownerAddress","type":"address","internalType":"address"},{"name":"_stableCoin","type":"address","internalType":"address"}],"stateMutability":"payable"},{"type":"function","name":"bitsaveAddress","inputs":[],"outputs":[{"name":"","type":"address","internalType":"address payable"}],"stateMutability":"view"},{"type":"function","name":"createSaving","inputs":[{"name":"name","type":"string","internalType":"string"},{"name":"maturityTime","type":"uint256","internalType":"uint256"},{"name":"startTime","type":"uint256","internalType":"uint256"},{"name":"penaltyPercentage","type":"uint8","internalType":"uint8"},{"name":"tokenId","type":"address","internalType":"address"},{"name":"amountToRetrieve","type":"uint256","internalType":"uint256"},{"name":"isSafeMode","type":"bool","internalType":"bool"},{"name":"currentVaultState","type":"uint256","internalType":"uint256"},{"name":"currentTotalValueLocked","type":"uint256","internalType":"uint256"}],"outputs":[{"name":"","type":"uint256","internalType":"uint256"}],"stateMutability":"payable"},{"type":"function","name":"getSaving","inputs":[{"name":"nameOfSaving","type":"string","internalType":"string"}],"outputs":[{"name":"","type":"tuple","internalType":"struct ChildBitsave.SavingDataStruct","components":[{"name":"isValid","type":"bool","internalType":"bool"},{"name":"amount","type":"uint256","internalType":"uint256"},{"name":"tokenId","type":"address","internalType":"address"},{"name":"interestAccumulated","type":"uint256","internalType":"uint256"},{"name":"startTime","type":"uint256","internalType":"uint256"},{"name":"penaltyPercentage","type":"uint256","internalType":"uint256"},{"name":"maturityTime","type":"uint256","internalType":"uint256"},{"name":"isSafeMode","type":"bool","internalType":"bool"}]}],"stateMutability":"view"},{"type":"function","name":"getSavingInterest","inputs":[{"name":"nameOfSaving","type":"string","internalType":"string"}],"outputs":[{"name":"","type":"uint256","internalType":"uint256"}],"stateMutability":"view"},{"type":"function","name":"getSavingMode","inputs":[{"name":"nameOfSaving","type":"string","internalType":"string"}],"outputs":[{"name":"","type":"bool","internalType":"bool"}],"stateMutability":"view"},{"type":"function","name":"getSavingTokenId","inputs":[{"name":"nameOfSaving","type":"string","internalType":"string"}],"outputs":[{"name":"","type":"address","internalType":"address"}],"stateMutability":"view"},{"type":"function","name":"getSavingsNames","inputs":[],"outputs":[{"name":"","type":"tuple","internalType":"struct ChildBitsave.SavingsNamesObj","components":[{"name":"savingsNames","type":"string[]","internalType":"string[]"}]}],"stateMutability":"view"},{"type":"function","name":"incrementSaving","inputs":[{"name":"name","type":"string","internalType":"string"},{"name":"savingPlusAmount","type":"uint256","internalType":"uint256"},{"name":"currentVaultState","type":"uint256","internalType":"uint256"},{"name":"currentTotalValueLocked","type":"uint256","internalType":"uint256"}],"outputs":[{"name":"","type":"uint256","internalType":"uint256"}],"stateMutability":"payable"},{"type":"function","name":"ownerAddress","inputs":[],"outputs":[{"name":"","type":"address","internalType":"address"}],"stateMutability":"view"},{"type":"function","name":"savings","inputs":[{"name":"","type":"string","internalType":"string"}],"outputs":[{"name":"isValid","type":"bool","internalType":"bool"},{"name":"amount","type":"uint256","internalType":"uint256"},{"name":"tokenId","type":"address","internalType":"address"},{"name":"interestAccumulated","type":"uint256","internalType":"uint256"},{"name":"startTime","type":"uint256","internalType":"uint256"},{"name":"penaltyPercentage","type":"uint256","internalType":"uint256"},{"name":"maturityTime","type":"uint256","internalType":"uint256"},{"name":"isSafeMode","type":"bool","internalType":"bool"}],"stateMutability":"view"},{"type":"function","name":"stableCoin","inputs":[],"outputs":[{"name":"","type":"address","internalType":"contract IERC20"}],"stateMutability":"view"},{"type":"function","name":"totalPoints","inputs":[],"outputs":[{"name":"","type":"uint256","internalType":"uint256"}],"stateMutability":"view"},{"type":"function","name":"withdrawSaving","inputs":[{"name":"name","type":"string","internalType":"string"}],"outputs":[{"name":"","type":"string","internalType":"string"}],"stateMutability":"payable"},{"type":"event","name":"SavingCreated","inputs":[{"name":"nameOfSaving","type":"string","indexed":false,"internalType":"string"},{"name":"amount","type":"uint256","indexed":false,"internalType":"uint256"},{"name":"token","type":"address","indexed":false,"internalType":"address"}],"anonymous":false},{"type":"event","name":"SavingIncremented","inputs":[{"name":"nameOfSaving","type":"string","indexed":false,"internalType":"string"},{"name":"amountAdded","type":"uint256","indexed":false,"internalType":"uint256"},{"name":"totalAmountNow","type":"uint256","indexed":false,"internalType":"uint256"},{"name":"token","type":"address","indexed":false,"internalType":"address"}],"anonymous":false},{"type":"event","name":"SavingWithdrawn","inputs":[{"name":"nameOfSaving","type":"string","indexed":false,"internalType":"string"}],"anonymous":false},{"type":"event","name":"TokenWithdrawal","inputs":[{"name":"from","type":"address","indexed":true,"internalType":"address"},{"name":"to","type":"address","indexed":false,"internalType":"address"},{"name":"amount","type":"uint256","indexed":false,"internalType":"uint256"}],"anonymous":false},{"type":"error","name":"CallNotFromBitsave","inputs":[]},{"type":"error","name":"InvalidSaving","inputs":[]},{"type":"error","name":"InvalidTime","inputs":[]},{"type":"error","name":"PRBMath__MulDivFixedPointOverflow","inputs":[{"name":"prod1","type":"uint256","internalType":"uint256"}]},{"type":"error","name":"PRBMath__MulDivOverflow","inputs":[{"name":"prod1","type":"uint256","internalType":"uint256"},{"name":"denominator","type":"uint256","internalType":"uint256"}]}],"bytecode":{"object":"0x6080604052604051620019bf380380620019bf83398101604081905261002491610082565b600080546001600160a01b031990811633178255600280546001600160a01b0395861690831617905560018054939094169216919091179091556003556100b5565b80516001600160a01b038116811461007d57600080fd5b919050565b6000806040838503121561009557600080fd5b61009e83610066565b91506100ac60208401610066565b90509250929050565b6118fa80620000c56000396000f3fe6080604052600436106100c25760003560e01c8063585dbffe1161007f578063992642e511610059578063992642e51461031e578063d1ece7901461033e578063dc2379b914610360578063e18f5f651461037357600080fd5b8063585dbffe1461025557806384febb69146102de5780638f84aa09146102fe57600080fd5b806313203929146100c75780631bb862a5146101965780632ae3c90f146101c6578063372f9101146101fe578063436d4a6d1461021e578063567142be1461023f575b600080fd5b3480156100d357600080fd5b506101446100e2366004611407565b8051602081830181018051600480835293830192909401919091209290528154600183015460028401546003850154938501546005860154600687015460079097015460ff9586169794966001600160a01b0390941695939492939192911688565b60408051981515895260208901979097526001600160a01b03909516958701959095526060860192909252608085015260a084015260c0830191909152151560e0820152610100015b60405180910390f35b3480156101a257600080fd5b506101b66101b1366004611407565b610393565b604051901515815260200161018d565b3480156101d257600080fd5b506000546101e6906001600160a01b031681565b6040516001600160a01b03909116815260200161018d565b61021161020c366004611407565b6103c1565b60405161018d919061148c565b61023161022c3660046114bb565b6106fd565b60405190815260200161018d565b34801561024b57600080fd5b5061023160035481565b34801561026157600080fd5b50610275610270366004611407565b610954565b60405161018d9190815115158152602080830151908201526040808301516001600160a01b031690820152606080830151908201526080808301519082015260a0808301519082015260c0808301519082015260e0918201511515918101919091526101000190565b3480156102ea57600080fd5b506102316102f9366004611407565b610a3a565b34801561030a57600080fd5b506002546101e6906001600160a01b031681565b34801561032a57600080fd5b506001546101e6906001600160a01b031681565b34801561034a57600080fd5b50610353610a65565b60405161018d9190611571565b61023161036e3660046115dd565b610b55565b34801561037f57600080fd5b506101e661038e366004611407565b610de9565b60006004826040516103a59190611631565b9081526040519081900360200190206007015460ff1692915050565b6000546060906001600160a01b031633146103ef5760405163229e1dbd60e01b815260040160405180910390fd5b60006004836040516104019190611631565b908152604051908190036020019020805490915060ff1661043557604051631ac7a3c960e31b815260040160405180910390fd5b600181015460005460068301546001600160a01b0390911690421015610484576064836005015460646104689190611663565b84600101546104779190611676565b61048191906116a3565b91505b600283015460078401546001600160a01b039091169060009060ff161561054a576000546001546104c3916001600160a01b0390811691879116610e1d565b50600254604051636f1ae1b960e11b81526001600160a01b0384811660048301526024820187905291821660448201529084169063de35c372906064016020604051808303816000875af115801561051f573d6000803e3d6000fd5b505050506040513d601f19601f8201168201806040525081019061054391906116c5565b9050610624565b6001600160a01b0382166106025760025460405160009182916001600160a01b039091169087908381818185875af1925050503d80600081146105a9576040519150601f19603f3d011682016040523d82523d6000602084013e6105ae565b606091505b5091509150816105fb5760405162461bcd60e51b8152602060048201526013602482015272436f756c646e27742073656e642066756e647360681b60448201526064015b60405180910390fd5b5050610624565b6002808601549054610621916001600160a01b03908116911686610ea0565b90505b80156106d157600060048860405161063c9190611631565b908152604051908190036020018120805492151560ff19909316929092179091557f5b059b7fe1fea38d4de595079621498a365a8f1fa13e49af9f1e4b7197ab049a9061068a90899061148c565b60405180910390a1505060408051808201909152601e81527f736176696e67732077697468647261776e207375636365737366756c6c790000602082015295945050505050565b6040518060400160405280600681526020016511985a5b195960d21b815250955050505050505b919050565b600080546001600160a01b031633146107295760405163229e1dbd60e01b815260040160405180910390fd5b60048a6040516107399190611631565b9081526040519081900360200190205460ff161561076a57604051631ac7a3c960e31b815260040160405180910390fd5b8789101561078b576040516337bf561360e11b815260040160405180910390fd5b428910156107ac576040516337bf561360e11b815260040160405180910390fd5b8484156107d6576000546001546107d0916001600160a01b03908116911688610f67565b506107ff565b6001600160a01b038716156107fc576000546107d0906001600160a01b03168888610f67565b50345b600061080e828c8c88886110ab565b9050604051806101000160405280600115158152602001838152602001896001600160a01b031681526020018281526020018b81526020018a60ff1681526020018c815260200187151581525060048d60405161086b9190611631565b90815260408051602092819003830190208351815460ff19908116911515919091178255928401516001820155908301516002820180546001600160a01b0319166001600160a01b03909216919091179055606083015160038201556080830151600482015560a0830151600582015560c0830151600682015560e090920151600790920180549091169115159190911790556109078c6110d1565b7f4ad85a69286191006ea05981ae1848070dbf232e5e00ffdda4b857c16097f0d78c888a60405161093a939291906116e2565b60405180910390a15060019b9a5050505050505050505050565b6109a96040518061010001604052806000151581526020016000815260200160006001600160a01b03168152602001600081526020016000815260200160008152602001600081526020016000151581525090565b6004826040516109b99190611631565b90815260408051918290036020908101832061010084018352805460ff9081161515855260018201549285019290925260028101546001600160a01b0316928401929092526003820154606084015260048201546080840152600582015460a0840152600682015460c084015260079091015416151560e082015292915050565b6000600482604051610a4c9190611631565b9081526020016040518091039020600301549050919050565b6040805160208101909152606081526040805160058054602081810284018501855283018181529293919284929091849160009085015b82821015610b48578382906000526020600020018054610abb90611715565b80601f0160208091040260200160405190810160405280929190818152602001828054610ae790611715565b8015610b345780601f10610b0957610100808354040283529160200191610b34565b820191906000526020600020905b815481529060010190602001808311610b1757829003601f168201915b505050505081526020019060010190610a9c565b5050505081525050905090565b600080546001600160a01b03163314610b815760405163229e1dbd60e01b815260040160405180910390fd5b6000600486604051610b939190611631565b908152604051908190036020019020805490915060ff16610bc757604051631ac7a3c960e31b815260040160405180910390fd5b8060060154421115610bec576040516337bf561360e11b815260040160405180910390fd5b600281015460078201546001600160a01b03909116159060ff1615610c2e57600054600154610c28916001600160a01b03908116911688610f67565b50610cb2565b80610c52576000546002830154610c28916001600160a01b03908116911688610f67565b85341015610cae5760405162461bcd60e51b815260206004820152602360248201527f496e76616c696420736176696e6720696e6372656d656e742076616c75652073604482015262195b9d60ea1b60648201526084016105f2565b3495505b6000610cc58784600601544289896110ab565b9050808360030154610cd7919061174f565b60038401556001830154610cec90889061174f565b60018401556040518390600490610d04908b90611631565b9081526040519081900360200181208254815460ff918216151560ff199182161783556001808601548185015560028087015481860180546001600160a01b0319166001600160a01b0392831617905560038089015490870155600480890154908701556005808901549087015560068089015490870155600797880154979095018054979094161515969092169590951790915592860154928601547ff6b98d8e0d83f8b1d1ff03a2fa36aba2c77ccf20e4ff035c0cf4aa92762e9eec93610dd2938d938d931690611762565b60405180910390a150506003015495945050505050565b6000600482604051610dfb9190611631565b908152604051908190036020019020600201546001600160a01b031692915050565b60405163095ea7b360e01b81526001600160a01b03848116600483015260248201849052600091839182169063095ea7b3906044016020604051808303816000875af1158015610e71573d6000803e3d6000fd5b505050506040513d601f19601f82011682018060405250810190610e9591906116c5565b9150505b9392505050565b60405163a9059cbb60e01b81526001600160a01b03838116600483015260248201839052600091859182169063a9059cbb906044016020604051808303816000875af1158015610ef4573d6000803e3d6000fd5b505050506040513d601f19601f82011682018060405250810190610f1891906116c5565b604080516001600160a01b03871681526020810186905291935030917f42856d0378dde02337bb59ae41747abc77ded8ebdbbc5cbdd1e53693b7554938910160405180910390a2509392505050565b604051636eb1769f60e11b81526001600160a01b038481166004830152306024830152600091839185169063dd62ed3e90604401602060405180830381865afa158015610fb8573d6000803e3d6000fd5b505050506040513d601f19601f82011682018060405250810190610fdc919061179a565b101561102a5760405162461bcd60e51b815260206004820152601c60248201527f546f6b656e20636f756c64206e6f742062652077697468647261776e0000000060448201526064016105f2565b6040516323b872dd60e01b81526001600160a01b038581166004830152306024830152604482018490528416906323b872dd906064016020604051808303816000875af115801561107f573d6000803e3d6000fd5b505050506040513d601f19601f820116820180604052508101906110a391906116c5565b949350505050565b60006110c2866110bb8688611663565b8585611111565b60038190559695505050505050565b600580546001810182556000919091527f036b6384b5eca791c62761152d0c79bb0604c104a5fb6f4eb0703f3154bb3db00161110d8282611804565b5050565b60008061113660646111308661112a8162e4e1c0611663565b906111af565b906111c4565b905060006111526111478584611676565b6305f5e100906111af565b90506000611164876301e133806111af565b90506111a3611195611180683635c9adc5dea000006064611676565b8361118b868d611676565b61112a9190611676565b670de0b6b3a7640000900490565b98975050505050505050565b6000610e9983670de0b6b3a7640000846111d0565b6000610e99838361129d565b600080806000198587098587029250828110838203039150508060000361120a578382816112005761120061168d565b0492505050610e99565b83811061123457604051631dcf306360e21b815260048101829052602481018590526044016105f2565b60008486880960026001871981018816978890046003810283188082028403028082028403028082028403028082028403028082028403029081029092039091026000889003889004909101858311909403939093029303949094049190911702949350505050565b60008080600019848609848602925082811083820303915050670de0b6b3a764000081106112e15760405163698d9a0160e11b8152600481018290526024016105f2565b600080670de0b6b3a764000086880991506706f05b59d3b1ffff821190508260000361131f5780670de0b6b3a764000085040194505050505061135e565b620400008285030493909111909103600160ee1b02919091177faccb18165bd6fe31ae1cf318dc5b51eee0e1ba569b88cd74c1773b91fac10669020190505b92915050565b634e487b7160e01b600052604160045260246000fd5b600082601f83011261138b57600080fd5b813567ffffffffffffffff808211156113a6576113a6611364565b604051601f8301601f19908116603f011681019082821181831017156113ce576113ce611364565b816040528381528660208588010111156113e757600080fd5b836020870160208301376000602085830101528094505050505092915050565b60006020828403121561141957600080fd5b813567ffffffffffffffff81111561143057600080fd5b6110a38482850161137a565b60005b8381101561145757818101518382015260200161143f565b50506000910152565b6000815180845261147881602086016020860161143c565b601f01601f19169290920160200192915050565b602081526000610e996020830184611460565b80151581146114ad57600080fd5b50565b80356106f88161149f565b60008060008060008060008060006101208a8c0312156114da57600080fd5b893567ffffffffffffffff8111156114f157600080fd5b6114fd8c828d0161137a565b99505060208a0135975060408a0135965060608a013560ff8116811461152257600080fd5b955060808a01356001600160a01b038116811461153e57600080fd5b945060a08a0135935061155360c08b016114b0565b925060e08a013591506101008a013590509295985092959850929598565b60006020808352604083018451828386015281815180845260608701915060608160051b8801019350848301925060005b818110156115d057605f198886030183526115be858551611460565b945092850192918501916001016115a2565b5092979650505050505050565b600080600080608085870312156115f357600080fd5b843567ffffffffffffffff81111561160a57600080fd5b6116168782880161137a565b97602087013597506040870135966060013595509350505050565b6000825161164381846020870161143c565b9190910192915050565b634e487b7160e01b600052601160045260246000fd5b8181038181111561135e5761135e61164d565b808202811582820484141761135e5761135e61164d565b634e487b7160e01b600052601260045260246000fd5b6000826116c057634e487b7160e01b600052601260045260246000fd5b500490565b6000602082840312156116d757600080fd5b8151610e998161149f565b6060815260006116f56060830186611460565b6020830194909452506001600160a01b0391909116604090910152919050565b600181811c9082168061172957607f821691505b60208210810361174957634e487b7160e01b600052602260045260246000fd5b50919050565b8082018082111561135e5761135e61164d565b6080815260006117756080830187611460565b60208301959095525060408101929092526001600160a01b0316606090910152919050565b6000602082840312156117ac57600080fd5b5051919050565b601f8211156117ff576000816000526020600020601f850160051c810160208610156117dc5750805b601f850160051c820191505b818110156117fb578281556001016117e8565b5050505b505050565b815167ffffffffffffffff81111561181e5761181e611364565b6118328161182c8454611715565b846117b3565b602080601f831160018114611867576000841561184f5750858301515b600019600386901b1c1916600185901b1785556117fb565b600085815260208120601f198616915b8281101561189657888601518255948401946001909101908401611877565b50858210156118b45787850151600019600388901b60f8161c191681555b5050505050600190811b0190555056fea2646970667358221220acf0315cf34ec8d22ec312e64c2082e1ba3f1ebf6c4fb9fe23502e487c83563564736f6c63430008170033","linkReferences":{}},"methodIdentifiers":{"bitsaveAddress()":"2ae3c90f","createSaving(string,uint256,uint256,uint8,address,uint256,bool,uint256,uint256)":"436d4a6d","getSaving(string)":"585dbffe","getSavingInterest(string)":"84febb69","getSavingMode(string)":"1bb862a5","getSavingTokenId(string)":"e18f5f65","getSavingsNames()":"d1ece790","incrementSaving(string,uint256,uint256,uint256)":"dc2379b9","ownerAddress()":"8f84aa09","savings(string)":"13203929","stableCoin()":"992642e5","totalPoints()":"567142be","withdrawSaving(string)":"372f9101"},"id":35}