{"abi":[{"type":"constructor","inputs":[{"name":"_stableCoin","type":"address","internalType":"address"},{"name":"_csToken","type":"address","internalType":"address"}],"stateMutability":"payable"},{"type":"receive","stateMutability":"payable"},{"type":"function","name":"ChildContractGasFee","inputs":[],"outputs":[{"name":"","type":"uint256","internalType":"uint256"}],"stateMutability":"view"},{"type":"function","name":"JoinLimitFee","inputs":[],"outputs":[{"name":"","type":"uint256","internalType":"uint256"}],"stateMutability":"view"},{"type":"function","name":"SavingFee","inputs":[],"outputs":[{"name":"","type":"uint256","internalType":"uint256"}],"stateMutability":"view"},{"type":"function","name":"createSaving","inputs":[{"name":"nameOfSaving","type":"string","internalType":"string"},{"name":"maturityTime","type":"uint256","internalType":"uint256"},{"name":"penaltyPercentage","type":"uint8","internalType":"uint8"},{"name":"safeMode","type":"bool","internalType":"bool"},{"name":"tokenToSave","type":"address","internalType":"address"},{"name":"amount","type":"uint256","internalType":"uint256"}],"outputs":[],"stateMutability":"payable"},{"type":"function","name":"csToken","inputs":[],"outputs":[{"name":"","type":"address","internalType":"contract IERC20"}],"stateMutability":"view"},{"type":"function","name":"currentTotalValueLocked","inputs":[],"outputs":[{"name":"","type":"uint256","internalType":"uint256"}],"stateMutability":"view"},{"type":"function","name":"currentVaultState","inputs":[],"outputs":[{"name":"","type":"uint256","internalType":"uint256"}],"stateMutability":"view"},{"type":"function","name":"dripFountain","inputs":[],"outputs":[],"stateMutability":"nonpayable"},{"type":"function","name":"editFees","inputs":[{"name":"_joinFee","type":"uint256","internalType":"uint256"},{"name":"_savingFee","type":"uint256","internalType":"uint256"}],"outputs":[],"stateMutability":"nonpayable"},{"type":"function","name":"editInternalData","inputs":[{"name":"_newCurrentVaultState","type":"uint256","internalType":"uint256"},{"name":"_newTotalValueLocked","type":"uint256","internalType":"uint256"},{"name":"_newCsToken","type":"address","internalType":"address"}],"outputs":[],"stateMutability":"nonpayable"},{"type":"function","name":"editStableCoin","inputs":[{"name":"_newStableCoin","type":"address","internalType":"address"}],"outputs":[],"stateMutability":"nonpayable"},{"type":"function","name":"fountain","inputs":[],"outputs":[{"name":"","type":"uint256","internalType":"uint256"}],"stateMutability":"view"},{"type":"function","name":"getUserChildContractAddress","inputs":[],"outputs":[{"name":"","type":"address","internalType":"address"}],"stateMutability":"view"},{"type":"function","name":"incrementSaving","inputs":[{"name":"nameOfSavings","type":"string","internalType":"string"},{"name":"tokenToRetrieve","type":"address","internalType":"address"},{"name":"amount","type":"uint256","internalType":"uint256"}],"outputs":[],"stateMutability":"payable"},{"type":"function","name":"joinBitsave","inputs":[],"outputs":[{"name":"","type":"address","internalType":"address"}],"stateMutability":"payable"},{"type":"function","name":"masterAddress","inputs":[],"outputs":[{"name":"","type":"address","internalType":"address"}],"stateMutability":"view"},{"type":"function","name":"rewardPool","inputs":[],"outputs":[{"name":"","type":"uint256","internalType":"uint256"}],"stateMutability":"view"},{"type":"function","name":"sendAsOriginalToken","inputs":[{"name":"originalToken","type":"address","internalType":"address"},{"name":"amount","type":"uint256","internalType":"uint256"},{"name":"ownerAddress","type":"address","internalType":"address"}],"outputs":[{"name":"","type":"bool","internalType":"bool"}],"stateMutability":"payable"},{"type":"function","name":"stableCoin","inputs":[],"outputs":[{"name":"","type":"address","internalType":"contract IERC20"}],"stateMutability":"view"},{"type":"function","name":"userCount","inputs":[],"outputs":[{"name":"","type":"uint256","internalType":"uint256"}],"stateMutability":"view"},{"type":"function","name":"withdrawSaving","inputs":[{"name":"nameOfSavings","type":"string","internalType":"string"}],"outputs":[{"name":"","type":"bool","internalType":"bool"}],"stateMutability":"nonpayable"},{"type":"event","name":"JoinedBitsave","inputs":[{"name":"userAddress","type":"address","indexed":true,"internalType":"address"}],"anonymous":false},{"type":"event","name":"SavingCreated","inputs":[{"name":"nameOfSaving","type":"string","indexed":true,"internalType":"string"},{"name":"amount","type":"uint256","indexed":false,"internalType":"uint256"},{"name":"token","type":"address","indexed":false,"internalType":"address"}],"anonymous":false},{"type":"event","name":"TokenWithdrawal","inputs":[{"name":"from","type":"address","indexed":true,"internalType":"address"},{"name":"to","type":"address","indexed":true,"internalType":"address"},{"name":"amount","type":"uint256","indexed":false,"internalType":"uint256"}],"anonymous":false},{"type":"error","name":"AmountNotEnough","inputs":[]},{"type":"error","name":"CallNotFromBitsave","inputs":[]},{"type":"error","name":"CanNotWithdrawToken","inputs":[{"name":"","type":"string","internalType":"string"}]},{"type":"error","name":"InvalidTime","inputs":[]},{"type":"error","name":"MasterCallRequired","inputs":[]},{"type":"error","name":"NotEnoughToPayGasFee","inputs":[]},{"type":"error","name":"NotSupported","inputs":[{"name":"","type":"string","internalType":"string"}]},{"type":"error","name":"UserNotRegistered","inputs":[]}],"bytecode":{"object":"0x6080604052655af3107a4000600955655af3107a4000600a556014600a5461002791906100a4565b600b5560405162002e5438038062002e5483398101604081905261004a916100e2565b600080546001600160a01b039384166001600160a01b03199182161782556001805493909416928116929092179092556002805490911633179055600381905560065562d59f80600755620186a060085534600455610115565b6000826100c157634e487b7160e01b600052601260045260246000fd5b500490565b80516001600160a01b03811681146100dd57600080fd5b919050565b600080604083850312156100f557600080fd5b6100fe836100c6565b915061010c602084016100c6565b90509250929050565b612d2f80620001256000396000f3fe60806040526004361061012e5760003560e01c806384762b0b116100ab578063d5633e961161006f578063d5633e96146102e9578063de35c372146102fe578063e04605fd14610311578063ea41367214610331578063f24053b31461035c578063fed0b9251461037257600080fd5b806384762b0b1461025d578063992642e5146102735780639986e0e914610293578063bf66bfc7146102b3578063d365a08e146102c957600080fd5b8063372f9101116100f2578063372f9101146101ce5780634c3fa304146101fe5780636405350a1461021457806366666aa9146102275780637679489c1461023d57600080fd5b8063025007391461013a57806307973ccf1461016357806316f94d5d14610179578063174fbaee146101995780631fdc181f146101bb57600080fd5b3661013557005b600080fd5b34801561014657600080fd5b5061015060085481565b6040519081526020015b60405180910390f35b34801561016f57600080fd5b5061015060065481565b610181610388565b6040516001600160a01b03909116815260200161015a565b3480156101a557600080fd5b506101b96101b4366004610e89565b6104aa565b005b6101b96101c9366004610f85565b6104ff565b3480156101da57600080fd5b506101ee6101e9366004610fdf565b610756565b604051901515815260200161015a565b34801561020a57600080fd5b5061015060075481565b6101b9610222366004611022565b610821565b34801561023357600080fd5b5061015060035481565b34801561024957600080fd5b506101b96102583660046110b1565b610a0c565b34801561026957600080fd5b5061015060095481565b34801561027f57600080fd5b50600054610181906001600160a01b031681565b34801561029f57600080fd5b506101b96102ae3660046110ea565b610a71565b3480156102bf57600080fd5b50610150600b5481565b3480156102d557600080fd5b50600254610181906001600160a01b031681565b3480156102f557600080fd5b506101b9610aca565b6101ee61030c36600461110e565b610b49565b34801561031d57600080fd5b50600154610181906001600160a01b031681565b34801561033d57600080fd5b50336000908152600560205260409020546001600160a01b0316610181565b34801561036857600080fd5b5061015060045481565b34801561037e57600080fd5b50610150600a5481565b336000818152600560205260408120549091906001600160a01b031680156103b05792915050565b6009543410156103d3576040516332dba14760e21b815260040160405180910390fd5b6000805460405133916001600160a01b0316906103ef90610e7c565b6001600160a01b03928316815291166020820152604001604051809103906000f080158015610422573d6000803e3d6000fd5b506001600160a01b03848116600090815260056020526040812080546001600160a01b031916928416929092179091556006805492935060019290919061046a90849061115b565b90915550506040516001600160a01b038416907f0c5c0c4d53b63790e32770cf47fd115d706000fd7ab63fbdc8d176c5020d6b4690600090a29392505050565b6002546001600160a01b031633146104d557604051630cd98acd60e21b815260040160405180910390fd5b81156104e15760098290555b80156104fb57600a8190556104f7601482611174565b600b555b5050565b336000818152600560205260409020546001600160a01b031661053557604051632163950f60e01b815260040160405180910390fd5b3360009081526005602052604080822054905163e18f5f6560e01b81526001600160a01b03909116918291829063e18f5f6590610576908a906004016111e6565b602060405180830381865afa158015610593573d6000803e3d6000fd5b505050506040513d601f19601f820116820180604052508101906105b791906111f9565b604051631bb862a560e01b81529091506001600160a01b038083161591879160009190861690631bb862a5906105f1908d906004016111e6565b602060405180830381865afa15801561060e573d6000803e3d6000fd5b505050506040513d601f19601f820116820180604052508101906106329190611216565b90508015610649576000546001600160a01b031698505b826106a15761065986838b610bbe565b61069c5760405162461bcd60e51b815260206004820152600f60248201526e14d85d9a5b99dcc81a5b9d985b1a59608a1b60448201526064015b60405180910390fd5b6106a5565b3491505b60006106b2898689610c3f565b9050856001600160a01b031663dc2379b9856106d057600b546106de565b84600b546106de919061115b565b8d8c6007546008546040518663ffffffff1660e01b81526004016107059493929190611233565b60206040518083038185885af1158015610723573d6000803e3d6000fd5b50505050506040513d601f19601f820116820180604052508101906107489190611262565b505050505050505050505050565b336000818152600560205260408120549091906001600160a01b031661078f57604051632163950f60e01b815260040160405180910390fd5b336000908152600560205260409081902054905163372f910160e01b81526001600160a01b0390911690819063372f9101906107cf9087906004016111e6565b6000604051808303816000875af11580156107ee573d6000803e3d6000fd5b505050506040513d6000823e601f3d908101601f19168201604052610816919081019061127b565b506001949350505050565b336000818152600560205260409020546001600160a01b031661085757604051632163950f60e01b815260040160405180910390fd5b600a5434101561087a576040516368613cd160e11b815260040160405180910390fd5b8542111561089b576040516337bf561360e11b815260040160405180910390fd5b83156108de5760405163329e2f1560e01b81526020600482015260116024820152704e6f2073616665206d6f6465207965742160781b6044820152606401610693565b336000908152600560205260408120546001600160a01b031690610903848684610c3f565b9050816001600160a01b038082169063436d4a6d9088161561092757600b54610935565b83600b54610935919061115b565b8c8c428d8c898f6007546008546040518b63ffffffff1660e01b8152600401610966999897969594939291906112e9565b60206040518083038185885af1158015610984573d6000803e3d6000fd5b50505050506040513d601f19601f820116820180604052508101906109a99190611262565b50896040516109b8919061134b565b604080519182900382208483526001600160a01b0389166020840152917f4ad85a69286191006ea05981ae1848070dbf232e5e00ffdda4b857c16097f0d7910160405180910390a250505050505050505050565b6002546001600160a01b03163314610a3757604051630cd98acd60e21b815260040160405180910390fd5b600783905560088290556001600160a01b03811615610a6c57600180546001600160a01b0319166001600160a01b0383161790555b505050565b6002546001600160a01b03163314610a9c57604051630cd98acd60e21b815260040160405180910390fd5b6001600160a01b03811615610ac757600080546001600160a01b0319166001600160a01b0383161790555b50565b6002546001600160a01b03163314610af557604051630cd98acd60e21b815260040160405180910390fd5b6004544790811115610ac7576002546004546001600160a01b03909116906108fc90610b219084611367565b6040518115909202916000818181858888f193505050501580156104fb573d6000803e3d6000fd5b6001600160a01b038082166000908152600560205260408120549091839116801580610b7e57506001600160a01b0381163314155b15610b9c5760405163229e1dbd60e01b815260040160405180910390fd5b600054610bb49033906001600160a01b031687610d38565b9695505050505050565b60405163095ea7b360e01b81526001600160a01b03848116600483015260248201849052600091839182169063095ea7b3906044016020604051808303816000875af1158015610c12573d6000803e3d6000fd5b505050506040513d601f19601f82011682018060405250810190610c369190611216565b95945050505050565b60006001600160a01b03831615610d20576000610c5d338587610d38565b905080610c9a5760405163ec86672960e01b815260206004820152600a602482015269151e1b8819985a5b195960b21b6044820152606401610693565b604051858152309033907f42856d0378dde02337bb59ae41747abc77ded8ebdbbc5cbdd1e53693b75549389060200160405180910390a3610cdc838686610bbe565b610d1a5760405162461bcd60e51b815260206004820152600f60248201526e14d85d9a5b99dcc81a5b9d985b1a59608a1b6044820152606401610693565b50610d30565b600a54610d2d9034611367565b93505b509192915050565b604051636eb1769f60e11b81526001600160a01b038481166004830152306024830152600091839185169063dd62ed3e90604401602060405180830381865afa158015610d89573d6000803e3d6000fd5b505050506040513d601f19601f82011682018060405250810190610dad9190611262565b1015610dfb5760405162461bcd60e51b815260206004820152601c60248201527f546f6b656e20636f756c64206e6f742062652077697468647261776e000000006044820152606401610693565b6040516323b872dd60e01b81526001600160a01b038581166004830152306024830152604482018490528416906323b872dd906064016020604051808303816000875af1158015610e50573d6000803e3d6000fd5b505050506040513d601f19601f82011682018060405250810190610e749190611216565b949350505050565b61197f8061137b83390190565b60008060408385031215610e9c57600080fd5b50508035926020909101359150565b634e487b7160e01b600052604160045260246000fd5b604051601f8201601f1916810167ffffffffffffffff81118282101715610eea57610eea610eab565b604052919050565b600067ffffffffffffffff821115610f0c57610f0c610eab565b50601f01601f191660200190565b600082601f830112610f2b57600080fd5b8135610f3e610f3982610ef2565b610ec1565b818152846020838601011115610f5357600080fd5b816020850160208301376000918101602001919091529392505050565b6001600160a01b0381168114610ac757600080fd5b600080600060608486031215610f9a57600080fd5b833567ffffffffffffffff811115610fb157600080fd5b610fbd86828701610f1a565b9350506020840135610fce81610f70565b929592945050506040919091013590565b600060208284031215610ff157600080fd5b813567ffffffffffffffff81111561100857600080fd5b610e7484828501610f1a565b8015158114610ac757600080fd5b60008060008060008060c0878903121561103b57600080fd5b863567ffffffffffffffff81111561105257600080fd5b61105e89828a01610f1a565b96505060208701359450604087013560ff8116811461107c57600080fd5b9350606087013561108c81611014565b9250608087013561109c81610f70565b8092505060a087013590509295509295509295565b6000806000606084860312156110c657600080fd5b833592506020840135915060408401356110df81610f70565b809150509250925092565b6000602082840312156110fc57600080fd5b813561110781610f70565b9392505050565b60008060006060848603121561112357600080fd5b833561112e81610f70565b92506020840135915060408401356110df81610f70565b634e487b7160e01b600052601160045260246000fd5b8082018082111561116e5761116e611145565b92915050565b60008261119157634e487b7160e01b600052601260045260246000fd5b500490565b60005b838110156111b1578181015183820152602001611199565b50506000910152565b600081518084526111d2816020860160208601611196565b601f01601f19169290920160200192915050565b60208152600061110760208301846111ba565b60006020828403121561120b57600080fd5b815161110781610f70565b60006020828403121561122857600080fd5b815161110781611014565b60808152600061124660808301876111ba565b6020830195909552506040810192909252606090910152919050565b60006020828403121561127457600080fd5b5051919050565b60006020828403121561128d57600080fd5b815167ffffffffffffffff8111156112a457600080fd5b8201601f810184136112b557600080fd5b80516112c3610f3982610ef2565b8181528560208385010111156112d857600080fd5b610c36826020830160208601611196565b60006101208083526112fd8184018d6111ba565b602084019b909b525050604081019790975260ff9590951660608701526001600160a01b0393909316608086015260a0850191909152151560c084015260e083015261010090910152919050565b6000825161135d818460208701611196565b9190910192915050565b8181038181111561116e5761116e61114556fe60806040526040516200197f3803806200197f83398101604081905261002491610082565b600080546001600160a01b031990811633178255600280546001600160a01b0395861690831617905560018054939094169216919091179091556003556100b5565b80516001600160a01b038116811461007d57600080fd5b919050565b6000806040838503121561009557600080fd5b61009e83610066565b91506100ac60208401610066565b90509250929050565b6118ba80620000c56000396000f3fe6080604052600436106100c25760003560e01c8063585dbffe1161007f578063992642e511610059578063992642e51461031e578063d1ece7901461033e578063dc2379b914610360578063e18f5f651461037357600080fd5b8063585dbffe1461025557806384febb69146102de5780638f84aa09146102fe57600080fd5b806313203929146100c75780631bb862a5146101965780632ae3c90f146101c6578063372f9101146101fe578063436d4a6d1461021e578063567142be1461023f575b600080fd5b3480156100d357600080fd5b506101446100e2366004611432565b8051602081830181018051600480835293830192909401919091209290528154600183015460028401546003850154938501546005860154600687015460079097015460ff9586169794966001600160a01b0390941695939492939192911688565b60408051981515895260208901979097526001600160a01b03909516958701959095526060860192909252608085015260a084015260c0830191909152151560e0820152610100015b60405180910390f35b3480156101a257600080fd5b506101b66101b1366004611432565b610393565b604051901515815260200161018d565b3480156101d257600080fd5b506000546101e6906001600160a01b031681565b6040516001600160a01b03909116815260200161018d565b61021161020c366004611432565b6103c1565b60405161018d91906114b7565b61023161022c3660046114e6565b6106dd565b60405190815260200161018d565b34801561024b57600080fd5b5061023160035481565b34801561026157600080fd5b50610275610270366004611432565b61094f565b60405161018d9190815115158152602080830151908201526040808301516001600160a01b031690820152606080830151908201526080808301519082015260a0808301519082015260c0808301519082015260e0918201511515918101919091526101000190565b3480156102ea57600080fd5b506102316102f9366004611432565b610a35565b34801561030a57600080fd5b506002546101e6906001600160a01b031681565b34801561032a57600080fd5b506001546101e6906001600160a01b031681565b34801561034a57600080fd5b50610353610a60565b60405161018d919061159c565b61023161036e366004611608565b610b50565b34801561037f57600080fd5b506101e661038e366004611432565b610e0c565b60006004826040516103a5919061165c565b9081526040519081900360200190206007015460ff1692915050565b6000546060906001600160a01b031633146103ef5760405163229e1dbd60e01b815260040160405180910390fd5b6000600483604051610401919061165c565b908152604051908190036020019020805490915060ff1661043557604051631ac7a3c960e31b815260040160405180910390fd5b600181015460005460068301546001600160a01b039091169042101561048457606483600501546064610468919061168e565b846001015461047791906116a1565b61048191906116ce565b91505b600283015460078401546001600160a01b039091169060009060ff161561054a576000546001546104c3916001600160a01b0390811691879116610e40565b50600254604051636f1ae1b960e11b81526001600160a01b0384811660048301526024820187905291821660448201529084169063de35c372906064016020604051808303816000875af115801561051f573d6000803e3d6000fd5b505050506040513d601f19601f8201168201806040525081019061054391906116f0565b9050610625565b6001600160a01b0382166106035760025460405160009182916001600160a01b039091169087908381818185875af1925050503d80600081146105a9576040519150601f19603f3d011682016040523d82523d6000602084013e6105ae565b606091505b5091509150816105fb5760405162461bcd60e51b8152602060048201526013602482015272436f756c646e27742073656e642066756e647360681b60448201526064015b60405180910390fd5b509050610625565b6002808601549054610622916001600160a01b03908116911686610ec3565b90505b80156100c257600060048860405161063d919061165c565b908152604051908190036020018120805492151560ff199093169290921790915561066990889061165c565b604051908190038120907f5b059b7fe1fea38d4de595079621498a365a8f1fa13e49af9f1e4b7197ab049a90600090a2505060408051808201909152601e81527f736176696e67732077697468647261776e207375636365737366756c6c790000602082015295945050505050565b919050565b600080546001600160a01b031633146107095760405163229e1dbd60e01b815260040160405180910390fd5b60048a604051610719919061165c565b9081526040519081900360200190205460ff161561074a57604051631ac7a3c960e31b815260040160405180910390fd5b8789101561076b576040516337bf561360e11b815260040160405180910390fd5b4289101561078c576040516337bf561360e11b815260040160405180910390fd5b8484156107b6576000546001546107b0916001600160a01b03908116911688610f92565b506107df565b6001600160a01b038716156107dc576000546107b0906001600160a01b03168888610f92565b50345b60006107ee828c8c88886110d6565b9050604051806101000160405280600115158152602001838152602001896001600160a01b031681526020018281526020018b81526020018a60ff1681526020018c815260200187151581525060048d60405161084b919061165c565b90815260408051602092819003830190208351815460ff19908116911515919091178255928401516001820155908301516002820180546001600160a01b0319166001600160a01b03909216919091179055606083015160038201556080830151600482015560a0830151600582015560c0830151600682015560e090920151600790920180549091169115159190911790556108e78c6110fc565b8b6040516108f5919061165c565b604080519182900382208983526001600160a01b038b166020840152917f4ad85a69286191006ea05981ae1848070dbf232e5e00ffdda4b857c16097f0d7910160405180910390a25060019b9a5050505050505050505050565b6109a46040518061010001604052806000151581526020016000815260200160006001600160a01b03168152602001600081526020016000815260200160008152602001600081526020016000151581525090565b6004826040516109b4919061165c565b90815260408051918290036020908101832061010084018352805460ff9081161515855260018201549285019290925260028101546001600160a01b0316928401929092526003820154606084015260048201546080840152600582015460a0840152600682015460c084015260079091015416151560e082015292915050565b6000600482604051610a47919061165c565b9081526020016040518091039020600301549050919050565b6040805160208101909152606081526040805160058054602081810284018501855283018181529293919284929091849160009085015b82821015610b43578382906000526020600020018054610ab69061170d565b80601f0160208091040260200160405190810160405280929190818152602001828054610ae29061170d565b8015610b2f5780601f10610b0457610100808354040283529160200191610b2f565b820191906000526020600020905b815481529060010190602001808311610b1257829003601f168201915b505050505081526020019060010190610a97565b5050505081525050905090565b600080546001600160a01b03163314610b7c5760405163229e1dbd60e01b815260040160405180910390fd5b6000600486604051610b8e919061165c565b908152604051908190036020019020805490915060ff16610bc257604051631ac7a3c960e31b815260040160405180910390fd5b8060060154421115610be7576040516337bf561360e11b815260040160405180910390fd5b600281015460078201546001600160a01b03909116159060ff1615610c2957600054600154610c23916001600160a01b03908116911688610f92565b50610cad565b80610c4d576000546002830154610c23916001600160a01b03908116911688610f92565b85341015610ca95760405162461bcd60e51b815260206004820152602360248201527f496e76616c696420736176696e6720696e6372656d656e742076616c75652073604482015262195b9d60ea1b60648201526084016105f2565b3495505b6000610cc08784600601544289896110d6565b9050808360030154610cd29190611747565b60038401556001830154610ce7908890611747565b60018401556040518390600490610cff908b9061165c565b9081526040519081900360200181208254815460ff918216151560ff199182161783556001808601549084015560028086015490840180546001600160a01b0319166001600160a01b03909216919091179055600380860154908401556004808601549084015560058086015490840155600680860154908401556007948501549490920180549490911615159390911692909217909155610da290899061165c565b60408051918290038220600186015460028701548b855260208501919091526001600160a01b031683830152905190917ff6b98d8e0d83f8b1d1ff03a2fa36aba2c77ccf20e4ff035c0cf4aa92762e9eec919081900360600190a250506003015495945050505050565b6000600482604051610e1e919061165c565b908152604051908190036020019020600201546001600160a01b031692915050565b60405163095ea7b360e01b81526001600160a01b03848116600483015260248201849052600091839182169063095ea7b3906044016020604051808303816000875af1158015610e94573d6000803e3d6000fd5b505050506040513d601f19601f82011682018060405250810190610eb891906116f0565b9150505b9392505050565b60405163a9059cbb60e01b81526001600160a01b03838116600483015260248201839052600091859182169063a9059cbb906044016020604051808303816000875af1158015610f17573d6000803e3d6000fd5b505050506040513d601f19601f82011682018060405250810190610f3b91906116f0565b9150836001600160a01b0316306001600160a01b03167f42856d0378dde02337bb59ae41747abc77ded8ebdbbc5cbdd1e53693b755493885604051610f8291815260200190565b60405180910390a3509392505050565b604051636eb1769f60e11b81526001600160a01b038481166004830152306024830152600091839185169063dd62ed3e90604401602060405180830381865afa158015610fe3573d6000803e3d6000fd5b505050506040513d601f19601f82011682018060405250810190611007919061175a565b10156110555760405162461bcd60e51b815260206004820152601c60248201527f546f6b656e20636f756c64206e6f742062652077697468647261776e0000000060448201526064016105f2565b6040516323b872dd60e01b81526001600160a01b038581166004830152306024830152604482018490528416906323b872dd906064016020604051808303816000875af11580156110aa573d6000803e3d6000fd5b505050506040513d601f19601f820116820180604052508101906110ce91906116f0565b949350505050565b60006110ed866110e6868861168e565b858561113c565b60038190559695505050505050565b600580546001810182556000919091527f036b6384b5eca791c62761152d0c79bb0604c104a5fb6f4eb0703f3154bb3db00161113882826117c4565b5050565b600080611161606461115b866111558162e4e1c061168e565b906111da565b906111ef565b9050600061117d61117285846116a1565b6305f5e100906111da565b9050600061118f876301e133806111da565b90506111ce6111c06111ab683635c9adc5dea0000060646116a1565b836111b6868d6116a1565b61115591906116a1565b670de0b6b3a7640000900490565b98975050505050505050565b6000610ebc83670de0b6b3a7640000846111fb565b6000610ebc83836112c8565b60008080600019858709858702925082811083820303915050806000036112355783828161122b5761122b6116b8565b0492505050610ebc565b83811061125f57604051631dcf306360e21b815260048101829052602481018590526044016105f2565b60008486880960026001871981018816978890046003810283188082028403028082028403028082028403028082028403028082028403029081029092039091026000889003889004909101858311909403939093029303949094049190911702949350505050565b60008080600019848609848602925082811083820303915050670de0b6b3a7640000811061130c5760405163698d9a0160e11b8152600481018290526024016105f2565b600080670de0b6b3a764000086880991506706f05b59d3b1ffff821190508260000361134a5780670de0b6b3a7640000850401945050505050611389565b620400008285030493909111909103600160ee1b02919091177faccb18165bd6fe31ae1cf318dc5b51eee0e1ba569b88cd74c1773b91fac10669020190505b92915050565b634e487b7160e01b600052604160045260246000fd5b600082601f8301126113b657600080fd5b813567ffffffffffffffff808211156113d1576113d161138f565b604051601f8301601f19908116603f011681019082821181831017156113f9576113f961138f565b8160405283815286602085880101111561141257600080fd5b836020870160208301376000602085830101528094505050505092915050565b60006020828403121561144457600080fd5b813567ffffffffffffffff81111561145b57600080fd5b6110ce848285016113a5565b60005b8381101561148257818101518382015260200161146a565b50506000910152565b600081518084526114a3816020860160208601611467565b601f01601f19169290920160200192915050565b602081526000610ebc602083018461148b565b80151581146114d857600080fd5b50565b80356106d8816114ca565b60008060008060008060008060006101208a8c03121561150557600080fd5b893567ffffffffffffffff81111561151c57600080fd5b6115288c828d016113a5565b99505060208a0135975060408a0135965060608a013560ff8116811461154d57600080fd5b955060808a01356001600160a01b038116811461156957600080fd5b945060a08a0135935061157e60c08b016114db565b925060e08a013591506101008a013590509295985092959850929598565b60006020808352604083018451828386015281815180845260608701915060608160051b8801019350848301925060005b818110156115fb57605f198886030183526115e985855161148b565b945092850192918501916001016115cd565b5092979650505050505050565b6000806000806080858703121561161e57600080fd5b843567ffffffffffffffff81111561163557600080fd5b611641878288016113a5565b97602087013597506040870135966060013595509350505050565b6000825161166e818460208701611467565b9190910192915050565b634e487b7160e01b600052601160045260246000fd5b8181038181111561138957611389611678565b808202811582820484141761138957611389611678565b634e487b7160e01b600052601260045260246000fd5b6000826116eb57634e487b7160e01b600052601260045260246000fd5b500490565b60006020828403121561170257600080fd5b8151610ebc816114ca565b600181811c9082168061172157607f821691505b60208210810361174157634e487b7160e01b600052602260045260246000fd5b50919050565b8082018082111561138957611389611678565b60006020828403121561176c57600080fd5b5051919050565b601f8211156117bf576000816000526020600020601f850160051c8101602086101561179c5750805b601f850160051c820191505b818110156117bb578281556001016117a8565b5050505b505050565b815167ffffffffffffffff8111156117de576117de61138f565b6117f2816117ec845461170d565b84611773565b602080601f831160018114611827576000841561180f5750858301515b600019600386901b1c1916600185901b1785556117bb565b600085815260208120601f198616915b8281101561185657888601518255948401946001909101908401611837565b50858210156118745787850151600019600388901b60f8161c191681555b5050505050600190811b0190555056fea2646970667358221220386aad08a856a308c306b99b1d61fcc3abd04684a11c4dd9ffeb220ba42fc37264736f6c63430008170033a26469706673582212201cc5c789e9e49266ee2aec0aae3da266a355e0b840ed7fecc3f8c28fcf819b8864736f6c63430008170033","linkReferences":{}},"methodIdentifiers":{"ChildContractGasFee()":"bf66bfc7","JoinLimitFee()":"84762b0b","SavingFee()":"fed0b925","createSaving(string,uint256,uint8,bool,address,uint256)":"6405350a","csToken()":"e04605fd","currentTotalValueLocked()":"02500739","currentVaultState()":"4c3fa304","dripFountain()":"d5633e96","editFees(uint256,uint256)":"174fbaee","editInternalData(uint256,uint256,address)":"7679489c","editStableCoin(address)":"9986e0e9","fountain()":"f24053b3","getUserChildContractAddress()":"ea413672","incrementSaving(string,address,uint256)":"1fdc181f","joinBitsave()":"16f94d5d","masterAddress()":"d365a08e","rewardPool()":"66666aa9","sendAsOriginalToken(address,uint256,address)":"de35c372","stableCoin()":"992642e5","userCount()":"07973ccf","withdrawSaving(string)":"372f9101"},"id":34}